:020000040800F2
:1000000010C7002011030008F95300083B520008F4
:10001000F5530008BD20000811630008000000002F
:10002000000000000000000000000000790200084D
:100030000D21000800000000BD020008455F000817
:100040002B0300082B0300082B0300089954000819
:100050002B0300082B0300082B0300082B030008C8
:100060002B0300082B0300082B0300082B030008B8
:100070002B0300082B030008C1200008D120000832
:100080002B0300082B0300082B0300082B03000898
:100090002B0300082B0300082B0300082B03000888
:1000A0002B0300082B0300082B0300082B03000878
:1000B0002B0300082B0300082B0300082B03000868
:1000C0002B0300082B0300082B0300082B03000858
:1000D0002B030008016300082B0300082B03000812
:1000E0002B0300082B0300082B0300082B03000838
:1000F0002B0300082B0300082B0300082B03000828
:100100002B0300082B0300082B0300082B03000817
:100110002B0300082B0300085D5F00082B03000879
:100120002B0300082B0300082B0300082B030008F7
:1001300000F002F800F090F80AA090E8000C824469
:100140008344AAF10107DA4501D100F085F8AFF246
:10015000090EBAE80F0013F0010F18BFFB1A43F0A5
:1001600001031847540E0100740E0100103A24BF19
:1001700078C878C1FAD8520724BF30C830C144BF0C
:1001800004680C607047000000230024002500264E
:10019000103A28BF78C1FBD8520728BF30C148BFEA
:1001A0000B6070476E2900F0D484702901F05580EF
:1001B00066290FF0728165290FF06F8167290FF0B2
:1001C0006C8161290FF06B8103681B0A28BF41F025
:1001D0008001692900F0BE81642900F0BB81752986
:1001E00000F0B8816F2900F0E287782901F02180C2
:1001F000E92900F07D87E42900F07A87F52900F0ED
:100200007787EF2900F0DF87F82901F02080036865
:10021000DB0928BF41F08001632900F0EC867329D7
:1002200000F0F186E32901F03982F32901F03E82E2
:10023000002070471FB501F01BF8040000200021CA
:100240000EF040F8401C6060002000210EF024F801
:10025000E0601FBD10B510BD01F0C6FA1146FFF7F2
:10026000E9FF09F0DDFD01F0EDFA03B4FFF7F2FF5D
:1002700003BC06F0FCF80000224B19680868B0E8DF
:10028000F00F80F30988BFF36F8F4FF0000080F309
:1002900011884EF00D0E70470000000006480068FF
:1002A000006880F3088862B661B6BFF34F8FBFF372
:1002B0006F8F00DF00BF00BF08ED00E0EFF30980A3
:1002C000BFF36F8F0F4B1A6820E9F00F106008B56D
:1002D0004FF0500080F31188BFF34F8FBFF36F8F43
:1002E0000CF0E6FE4FF0000080F31188BDE80840F6
:1002F00019680868B0E8F00F80F30988BFF36F8FC2
:10030000704700BF78000020EFF3058070470000C1
:100310000948804709480047FEE7FEE7FEE7FEE799
:10032000FEE7FEE7FEE7FEE7FEE7FEE704480549D5
:10033000054A064B70470000595F0008310100086C
:1003400010C1002010C7002010C3002010C30020DF
:10035000704753EA020C00F069802DE9F04B4FF032
:100360000006002B1FBFB3FA83F503FA05F424FA45
:1003700005F65E4012BF1643B2FA82F502FA05F4A2
:10038000C5F120051EBF22FA05FC44EA0C04203505
:1003900056EA044C4FEA144418BF641C4FF000089E
:1003A0004FF00009904271EB030C39D3002919BFBB
:1003B000B1FA81F701FA07F6B0FA80F700FA07F60A
:1003C000C7F120071EBF20FA07FC46EA0C062037BB
:1003D000B6FBF4FCA7EB0507103F07F01F0BCBF1B2
:1003E00020060CFA0BFB2CFA06F644BFB346002697
:1003F000202FA4BF5E464FF0000B5BEA060C08BF3F
:100400004FF0010B19EB0B09ABFB027C48EB060824
:10041000C01B06FB02CC0BFB03CC71EB0C01C1E74C
:100420000B46024641464846BDE8F08B13B54FF0F7
:1004300000004FF00001AFF30080BDE81C407047A2
:1004400010B54C1084EA530404D54042C1F10001B8
:1004500038BF491E1B4204D55242C3F1000338BFC6
:100460005B1EFFF776FF14F0804F04D04042C1F1CD
:10047000000138BF491E14F0004F04D05242C3F1AE
:10048000000338BF5B1E10BD7CB51D4616460C0030
:10049000009001D02044401E074B7B442A46694609
:1004A0000190304600F07DFD05461CB100206946F4
:1004B00000F08AFD28467CBD350B00000FB40449CE
:1004C00010B503AA029800F0A3FD10BC5DF814FB60
:1004D000380000200FB41CB5084B06AA7B446946BF
:1004E0000090059800F05DFD04460020694600F08C
:1004F0006BFD20461CBC5DF814FB0000E90A0000FF
:1005000070B50C460546012A05D02878800600D52E
:10051000EA69002302E0012305E05B1C934202D25A
:10052000E05C0028F9D1A869E618C01AA861286A19
:1005300018442862284600F07AFA04E0D5E901213F
:1005400014F8010B9047B442F8D3284600F085FA1E
:1005500070BD00002DE9F0410646002410687529A1
:10056000314616A510D000F089FA002802DA404280
:1005700013A507E031688A0701D512A502E04907F3
:1005800004D511A5012401E000F081FA00210A221E
:1005900006F1240709E0B0FBF2FCB0FBF2F302FB2A
:1005A0001C00303078541846491C0028F3D12346EB
:1005B0002A463046BDE8F04100F072BA0000000063
:1005C0002D0000002B000000200000002DE9F05F4E
:1005D000894604464FF0000ADFF874B1FB44C0F8C6
:1005E00020A02046E1688847002874D0252806D03E
:1005F000D4E901219047206A401C2062F1E70026DF
:100600005F462046E16888472028054607DB312DF4
:1006100005D2781910F8200C08B10643F1E7B007AD
:1006200001D526F00406C4F81CA00027C4F818A0C1
:100630002A2D09D0284605F013FF38B304EB8708AC
:10064000303DC8F8185019E059F8041B204604EB57
:1006500087029161E1688847012F054618D1E0695A
:10066000002820DA26F020061DE0D8F8180000EB5C
:10067000800005EB40003038C8F818002046E168DB
:100680008847054605F0ECFE0028EED1012F0AD080
:100690002E2D08D12046E16888477F1C0546022F91
:1006A00046F02006C4DBA069002803DA404246F089
:1006B0000106A061F00701D026F010066C2D0BD0CA
:1006C000682D09D04C2D39D06A2D35D0742D35D0F8
:1006D0007A2D33D016E038E0E1682F46204688476F
:1006E000B842054609D16C2F26D04FF48060E168EE
:1006F000064320468847054604E06C2F1AD04FF485
:10070000807006430DB3A5F14100192802D82035A9
:1007100046F400664A462946204626604E46FFF7C4
:1007200041FD80B101280BD0F61D26F0070000F135
:10073000080956E74020E4E78020D8E70020D6E704
:1007400006F104094DE7284652E7206ABDE8F09F0C
:10075000A2070100401ECAB210F8011F8A4202D04F
:100760000029F9D10020704740EA010310B59B072A
:100770000FD1042A0DD310C808C9121F9C42F8D00B
:1007800020BA19BA884201D9012010BD4FF0FF30BC
:1007900010BD1AB1D30703D0521C07E0002010BDD2
:1007A00010F8013B11F8014B1B1B07D110F8013B5E
:1007B00011F8014B1B1B01D1921EF1D1184610BD3F
:1007C00010B5431C02E010F8011B71B18107FAD18A
:1007D0004FF0013202C88C1A8C4314EAC211F9D0CE
:1007E000C01A0A0603D0C01E10BDC01A10BD0A04EC
:1007F00001D0801E10BD0902FCD0401E10BD032A8E
:1008000040F2308010F0030C00F0158011F8013B2D
:10081000BCF1020F624498BF11F801CB00F8013B14
:1008200038BF11F8013BA2F1040298BF00F801CBD8
:1008300038BF00F8013B11F0030300F02580083AAF
:10084000C0F0088051F8043B083A51F804CBA0E806
:100850000810F5E7121D5CBF51F8043B40F8043B5B
:10086000AFF30080D20724BF11F8013B11F801CB90
:1008700048BF11F8012B24BF00F8013B00F801CB61
:1008800048BF00F8012B704710B5203AC0F00B802C
:10089000B1E81850203AA0E81850B1E81850A0E884
:1008A0001850BFF4F5AF5FEA027C24BFB1E81850DE
:1008B000A0E8185044BF18C918C0BDE810405FEA4E
:1008C000827C24BF51F8043B40F8043B08BF7047CA
:1008D000D20728BF31F8023B48BF11F8012B28BFCF
:1008E00020F8023B48BF00F8012B704702F0FF03DD
:1008F00043EA032242EA024200F002B84FF000024B
:100900000429C0F0128010F0030C00F01B80CCF121
:10091000040CBCF1020F18BF00F8012BA8BF20F88F
:10092000022BA1EB0C0100F00DB85FEAC17C24BFE3
:1009300000F8012B00F8012B48BF00F8012B70478D
:100940004FF0000200B5134694469646203922BF68
:10095000A0E80C50A0E80C50B1F12001BFF4F7AFB3
:10096000090728BFA0E80C5048BF0CC05DF804EB95
:10097000890028BF40F8042B08BF704748BF20F803
:10098000022B11F0804F18BF00F8012B70470000B8
:100990004FF0013C50F8042B51F8043B9A4221D10E
:1009A000A2EB0C03934313EACC1317D150F8042B9A
:1009B00051F8043B9A4215D1A2EB0C03934313EA7E
:1009C000CC130BD150F8042B51F8043B9A4209D1B7
:1009D000A2EB0C03934313EACC13DBD04FF00000DF
:1009E000704700BFD01A01BAB1FA81F101F01801C5
:1009F00022FA01F0CB40C1F12001DBB2C0B2C01A33
:100A00002CFA01F3D11A914311EAC311E6D17047D0
:100A1000704770477047704710B500F02DFC0068B4
:100A200010BD10B5044600F027FC046010BD70B581
:100A3000044685690068C10601D5302600E02026FD
:100A4000C00707D070BDD4E9012130469047206A25
:100A5000401C20626D1EF6D570BD70B504468569D8
:100A60000078C00707D170BDD4E90121202090474C
:100A7000206A401C20626D1EF6D570BD09684A05CB
:100A800001D540B27047C905FCD500B2704709686E
:100A90004A0501D5C0B27047C905FCD580B2704780
:100AA0002DE9F0470D4699469246044600F1240888
:100AB0000168880604D5E06921F01001216000E09A
:100AC0000120A84201DD471B00E00027A1697A1937
:100AD00002EB0900081AA0612078C00602D4204663
:100AE000FFF7A5FF002608E0D4E901211AF8060067
:100AF0009047206A401C761C20624E45F4DB20782B
:100B0000C0060AD52046FFF792FF06E0D4E901218E
:100B100030209047206A401C2062381EA7F1010750
:100B2000F4DC07E0D4E9012118F805009047206AB9
:100B3000401C2062281EA5F10105F3DC2046FFF7CA
:100B40008CFF2078000602D50220BDE8F087012046
:100B5000FBE711680268006A530501D508700AE0D6
:100B6000D30501D5088006E0130603D5C217C1E9F5
:100B7000000200E008600120704770472DE9FF4F38
:100B80000C461E464FF0FF378BB0D2E90001DDF86E
:100B900060800A908A46C1F30A5505B93D46002196
:100BA00008464FF00000BAF1000F00F4400005DAEB
:100BB00000EB80004FF4400101EA50004FEA9059E9
:100BC000B9F1010F00DDB9460A9850EA4A000ED08B
:100BD00044F61050A5F2FF3545432F14B8F1000F2D
:100BE0001ED07542291E1EDDC9F100021CE0B8F1BD
:100BF000010F4FF0000001D0302103E0F24305E087
:100C00002154401CB042FBDB30460022002121541D
:100C10000B99C1F80880C1E900200FB0BDE8F08F42
:100C2000BD1B6D1CDEE74A4600DA694206A800F0EB
:100C300041FD06AB93E8070003AB83E8070050468D
:100C40000A9900F008FE8DE80700A0F500501F3853
:100C500000900398002D0ADD42F21F014A46084425
:100C6000002303A90390684601F071F809E0A0F59C
:100C700000504A461F38002303A90390684601F03C
:100C80007BF88DE807000004000C03D04FF0FF3024
:100C9000410800E01046B8F1000F03D00022009296
:100CA00015461EE0751E05D400F0EAFA3032625592
:100CB0006D1EF9D5B3460122084302D000227F1CE5
:100CC00004E02078302801D100227F1E002A0997F5
:100CD00084D01DE0112D07DA00F0D2FA30326255CF
:100CE0006D1C50EA0102F5D1084302D00098C8B14A
:100CF0000EE00021681E05E0235C625C6354225410
:100D0000401E491C8142F7DBAB46A81B401E0990E0
:100D1000002004F80B000B98099AC0F80880C0E97D
:100D2000002B7AE711264FF0000857E72DE9F04F26
:100D300088460446D21D22F0070191B0D1E9000196
:100D4000CDE90A0105F0E6FA02460B98C00F01D082
:100D50002D2007E02068810701D52B2002E020210B
:100D600001EAC000032A099001D0072A05DB0346E7
:100D70004146204600F048FC0BE12078800601D572
:100D8000E06900E00620B8F1650F814606D0B8F1B1
:100D9000660F18D0B8F1670F70D131E00020B9F1BB
:100DA000110F009001DB112301E009F101030AAAF0
:100DB00001A90CA8FFF7E2FEDDE90C70002609F19D
:100DC0000105834647E001204B4600904FF0004765
:100DD0000AAA01A90CA8FFF7D1FEDDE90DB00C9914
:100DE0005D46002610B909F101000D18B9EB0500A8
:100DF00003D4C0F1FF3609F10105A5EB09002BE092
:100E0000B9F1010F01DA4FF001090020B9F1110F1A
:100E10000090484601DD112300E003460AAA01A91B
:100E20000CA8FFF7ABFEDDE90C704D4600268346AB
:100E3000207800070AD4AB4500DA5D4601A8012DF1
:100E400004DD411911F8011C302907D04F4502DAA1
:100E500017F1040F04DA012082460FE06D1EEEE761
:100E6000002F02DCED1B3E4403E0781CA84200DDAD
:100E70007D1CB81B00F1010A4FF0004720780007E5
:100E800003D4AA4501DB4FF0FF3A0021B7F1004F30
:100E90000DF143088DF8431024D002202B23002F9E
:100EA00001DA7F422D230A21021EA0F1010000DC9D
:100EB0005FB197FBF1FC97FBF1F201FB1C7C17463D
:100EC0000CF1300C08F801CDEEE7A8F10100037039
:100ED0002188090501D5452100E06521A0F101081F
:100EE00000F8011C09980FA9A1EB0807FF1D00B12C
:100EF0000120411901EBEA70A1693844081A401E2B
:100F0000A0612078C00602D42046FFF790FD099822
:100F100028B1D4E901219047206A401C2062207842
:100F2000C00622D52046FFF782FD1EE0002E04DB1E
:100F3000B34502DD01A8805D00E03020D4E9012145
:100F40009047206A401C2062761CAAF101005FEAEB
:100F5000000A0AD100F08CF9C0680168405CD4E94D
:100F600001219047206A401C2062281EA5F101053E
:100F7000DCDC07E0D4E9012118F8010B9047206A76
:100F8000401C2062381EA7F10107F3DC2046FFF762
:100F900064FD032011B041E601694A1C0261087832
:100FA000704700B58FB0CDE90131002105910549A9
:100FB0007944CDE9031011466846FFF707FB0FB0EF
:100FC00000BD0000E5FFFFFF0A6802F8010B0A60A0
:100FD0007047D1E900239A4202D2531C0B60107073
:100FE000704710B5436913B1AFF3008001E0FFF71C
:100FF00087FA012010BD127800F124010A70002246
:101000004A700122EDE711684FF0FF32E9E7000076
:10101000074B70B50D467B44FFF7C3FF04462846D7
:1010200000F0BAFB10B14FF0FF3070BD204670BD2C
:10103000D76800002DE9FF5F15468A460446DFF8B1
:10104000AC80F8440027D8E900103E46CDE90010F6
:1010500010E03AF816106A4602A800F0A1FB411C05
:1010600007D02178890603D5E269391891420DD855
:101070000744761C2078800602D5E069B84205DD79
:10108000AE42E6DB3AF816000028E2D1A069C01BA8
:10109000A0612046FFF7CBFCD8E90010CDE9001095
:1010A000002017E03AF818106A4602A800F078FB12
:1010B000B0F1FF3F81460BD000250DF1080B05E094
:1010C000D4E901211BF8050090476D1C4D45F7D36D
:1010D00008F10100B0428046E4DB206A3844206217
:1010E0002046FFF7BAFCBDE8FF9F0000DAFD0000D4
:1010F0002DE9F0418046D21D22F007020025D2E9F9
:101100000002F52915A614D0011E72F1000106DABD
:101110000023D0EB030063EB020211A608E0D8F82D
:1011200000108B0701D50FA602E0490701D50EA6D6
:1011300001251146002408F1240704E000F0A0F87E
:1011400030323A55641C50EA0102F7D12B46324640
:1011500021464046BDE8F041FFF7A2BC0000000078
:101160002D0000002B0000002000000030B4002102
:1011700000F1240408E002F00705D208303542EA05
:101180004372DB086554491C52EA0305F3D1046835
:10119000002310A2250707D5A40600D421B1C469F5
:1011A00001230DA2641EC46130BCFFF779BC10B5E9
:1011B000044621461068FFF76AFC02462046BDE857
:1011C00010400023D2E7D21D22F00701D1E900230D
:1011D000CCE700000000000030000000F0B40D4635
:1011E0000188090502D5214C7C4402E01F4C7C4457
:1011F0000E34002100F1240608E002F00F07120966
:10120000E75D42EA03721B097754491C52EA03075F
:10121000F3D102780023120704D5702D06D009B14E
:10122000022311342246F0BCFFF73ABC01231034EC
:10123000F8E770B504460D4621461068FFF727FC15
:10124000024629462046BDE870400023C6E7D21D6D
:1012500022F00703D3E90023C0E70368126843F0D4
:10126000200303600823C3610023B7E73CFC0000B0
:1012700000487047CCC0002000487047ACC0002038
:1012800030B5B0F10A024FEA900E71F100034EEA58
:10129000817EB0EB0E0061EB91014FEA101E4EEA29
:1012A000017E10EB0E0041EB11114FEA102E4EEAB9
:1012B000016E10EB0E0041EB11214FEA104E4EEA89
:1012C000014E10EB0E0041EB1141401841F10001BD
:1012D0004FEAD00040EA41704FEAD10110EB80059F
:1012E0004FEA810444EA907444EB01046D1944EB25
:1012F0000404521BA3414FF0000348BF0A3200D53B
:1013000030BD401C41F1000130BD00002DE9F04F1F
:1013100004460D46D21D22F0070089B0D0E900979F
:101320004846394604F0F6FF0246F80F01D02D2357
:1013300007E02068810701D52B2302E0202101EA84
:10134000C0038DF820300BB1012000E00020032AFB
:10135000824601D0072A04DB2946204600F054F9D2
:101360003FE12078800601D40D2500E0E569C7F350
:101370000A560D2D49DA00214FEA175B08464FF057
:101380000000002F00F4400007DA00EB80004FF46B
:10139000400100EBD07001EA60008115012901DDF8
:1013A0004FF0FF3100224FEA850CBCF1180F06D335
:1013B0001346ACF118004FF08052C24003E04FF4E6
:1013C000801323FA0CF30CF10C0CBCF1200F04D3A6
:1013D000ACF1200C09FA0CF001E007FA0CF000293E
:1013E0004FF0004801DD18B90FE00ED140450CD395
:1013F00019EB02095F4121B9404502D19F4329EA17
:101400000209BBEB175F00D0761C2088000502D5CF
:101410007B48784402E07A487844193808AA302397
:1014200002F80A30037C0AF10101002E0AF1020AD7
:1014300053546A4602DC4FF0300101E04FF03101B5
:101440004FF001088DF8001002D0A6F2FF3603E03D
:1014500059EA470100D06B4E002D02DC21780907C4
:1014600004D54FF002082E218DF80110C44600214A
:101470000BE0C7F303433F01C35C491C6D1E02F838
:101480000830052908F1010801DA002DF1DC0021FE
:101490000CE000EB1973491C1B786D1E082902F83B
:1014A00008304FEA091908F1010801DA002DF0DCD3
:1014B00021688B0602D516E0A8F10108E04505DD9C
:1014C00002EB080313F8013C302BF5D0B8F1000F04
:1014D00009DD02EB080313F8013C2E2B03D10907A9
:1014E00001D4A8F10108002D05DD3E2102F8081005
:1014F0006D1E08F10108407C002E02F8080008F17A
:10150000010804DA2D20764202F8080002E02B20C0
:1015100002F808000A214FF47A70864208F10108A7
:101520000BDB96FBF0F3303302F8083096FBF0F358
:1015300008F1010800FB136601E0642E0CDB642057
:1015400096FBF0F3303302F8083096FBF0F308F125
:10155000010800FB136601E00A2E06DB96FBF1F0A2
:10156000303002F8080008F1010896FBF1F001FBA9
:101570001060303002F80800A16908F1010808EB9A
:10158000050202EB0A00081AA0612078C00602D406
:101590002046FFF74CFA216A08AE01EB0A002062F0
:1015A00004E0D4E9012116F8010B9047BAF1010AD1
:1015B000F7D22078C00602D52046FFF738FA6E46EB
:1015C00009E016F8010B3E280FD0D4E9012190471D
:1015D000206A401C2062B8F10108F2D22046FFF7D1
:1015E0003CFA09B00320BDE8F08F206A284420624D
:1015F00003E0D4E90121302090476D1EEBD3F8E7DA
:1016000055FA000002FCFFFF2DE9F0411F46044699
:1016100003260168072A01F4006004DB08B116A55F
:1016200005E016A503E008B115A500E015A521F019
:1016300010002060A069C01EA0610FB1401EA06113
:101640002046FFF7F4F94FB1D4E90121384690471D
:10165000206A401C2062C01C206206E0206AFAE773
:10166000D4E9012115F8010B9047761EF8D22046E7
:10167000FFF7F3F9BDE8F0814E414E006E616E0058
:10168000494E4600696E660010B5436913B1AFF369
:10169000008001E0FFF7CEFC012010BD128800F1B0
:1016A000240182840022C2840122EDE711684FF0F8
:1016B000FF32E9E72DE9F047814616468AB0354802
:1016C00078440DC88DE80D0032487844801C03AC86
:1016D0000DC884E80D0041F69B300844372190FB8B
:1016E000F1F290FBF1F5A5F1800501FB12041B3C22
:1016F00002D56442012000E00020DFF898A0804677
:101700000027FA44AAF1BE0A0EE0E0070AD03246EA
:10171000684607EB470101230AEB810100F02CFB2F
:101720008DE8070064107F1C002CEED1194F7F4418
:10173000AE3F19E0E80715D007EB04100DF1180AC9
:1017400090E80E008AE80E00C068F04201D19819B6
:1017500008903246012306A903A800F00DFB03AB55
:1017600083E807006D10641C002DE3D14FF00103E6
:1017700032466946B8F1000F03A802D000F0E7FA3C
:1017800001E000F0F9FAC9E90001C9F808200AB03F
:10179000BDE8F08738F80000007B00F0800070475B
:1017A00070B516460C46054600F044F8036893F8F9
:1017B0000101012806D0FF2C0FD8185D68B1012067
:1017C0002C7070BDD3F807013246214603F207138F
:1017D00003442846BDE8704018474FF0FF3070BD05
:1017E00000487047ACC000207546FFF7F9FFAE46D1
:1017F00005006946534620F00700854618B020B51D
:10180000FEF794FDBDE820404FF000064FF00007C2
:101810004FF000084FF0000B21F00701AC46ACE898
:10182000C009ACE8C009ACE8C009ACE8C0098D4605
:101830007047000010B5FFF71BFD001D10BD00BF75
:1018400085CA000010B50446AFF300802046BDE80D
:101850001040FEF70ABD5FEA400C08BF91F0000F90
:101860004FEA8C234FEAC12243EA51514FEA1C5000
:1018700018BF00F5F0404FEA300018BF41F00041BA
:101880005FEA6C5C00F02980BCF1FF3F08BF40F0CC
:1018900080407047130C06BF12044FF0100C4FF03D
:1018A000000C130E04BF12020CF1080C130F04BF3E
:1018B00012010CF1040C930F04BF92000CF1020C06
:1018C000D30F04BF52000CF1010C11464FF000027F
:1018D000A0F11F00A0EB0C00704711F0004F08BFF3
:1018E000704731F000413FF4D5AF0B0C06BF09043F
:1018F0004FF0100C4FF0000C0B0E04BF09020CF15E
:10190000080C0B0F04BF09010CF1040C8B0F04BF72
:1019100089000CF1020CCB0F04BF49000CF1010C43
:10192000CCF12003A0EB0C0022FA03F302FA0CF234
:1019300041EA030100F10100704720F07F4C80EA8A
:10194000030023F07F47ACEB070303F57C5300F063
:10195000004003F1FF032DE980494FEA154B09B41C
:101960004FEA144325EA0B4E24EA03480FF20426FB
:1019700006EB132749083E785FEA320203FB06674D
:10198000C7F5000707FB06F64FEA54374FEAD6467D
:1019900006F1020607FB066CCCF1005C4FEA1C471F
:1019A0002CEA074C07FB06F40CFB06F504EB154686
:1019B0004FEA961634BF00204FF000404FEAD1376F
:1019C00006FB07FC4FEA1C4C0CFB0BF7D21B03FB7E
:1019D0000CF761EB07010CFB0EF7B0EB074072EB65
:1019E00017420CFB08F734BFA2EB0742B2EB0742E9
:1019F00061EB17414FEA0C444FEA910706FB07FCE5
:101A00004FEA1C4C0CFB0BF7B0EBC74072EB5732A4
:101A100003FB0CF734BFA2EBC742B2EBC74261EB4A
:101A200057310CFB0EF7B0EBC70072EB57720CFB93
:101A300008F734BFA2EBC702B2EBC70261EB5771E4
:101A4000039F4FEA816141EA921104EBCC044FEA13
:101A5000D1374FEA826206FB07FC42EA90124FEA56
:101A600080604FEA1C4C0CFB0BF7D21B03FB0CF7FE
:101A700061EB07010CFB0EF7B0EB074072EB17426E
:101A80000CFB08F734BFA2EB0742B2EB074261EB55
:101A900017414FEA8C554FEA910704EB9C2406FB53
:101AA00007FC4FEA1C4C0CFB0BF7B0EBC74072EB8A
:101AB000573203FB0CF734BFA2EBC742B2EBC7426D
:101AC00061EB57310CFB0EF7B0EBC70072EB5772AE
:101AD0000CFB08F734BFA2EBC702B2EBC70261EB05
:101AE000577115EB4C254FEA816141EA92114FEA9B
:101AF00082624FEAD13742EA901206FB07FC44F1BA
:101B000000044FEA80604FEA1C4C0CFB0BF7D21B21
:101B100003FB0CF761EB07010CFB0EF7B0EB074082
:101B200072EB17420CFB08F734BFA2EB0742B2EB93
:101B3000074261EB174115EB1C154FEA813141EA71
:101B400092414FEA823242EA90424FEA80304FEAB5
:101B50000C7644F1000448EA03434EEA0B484FF088
:101B6000000EB2EB080C71EB030724BF6246394646
:101B70004EEB0E0E4FF0000B0018524149414BEB5B
:101B80000B0BB2EB080C71EB03077BF1000B24BFCE
:101B9000624639464EEB0E0E4FF0000B00185241D4
:101BA00049414BEB0B0BB2EB080C71EB03077BF1DC
:101BB000000B24BF624639464EEB0E0E51EA020777
:101BC00018BF46F0010616EB0E7655F1000254F1EF
:101BD000000103D5BDE88901BDE80088BDE88901A1
:101BE000BDE80048B619524141EB0101A3F10103E0
:101BF000704780807F7E7D7C7B7A7978777676757A
:101C00007473727171706F6E6E6D6C6C6B6A6A69F1
:101C10006868676666656464636362616160605F8B
:101C20005F5E5E5D5D5C5C5B5B5A5A595958585704
:101C3000575656555555545453535252525151506C
:101C400050504F4F4F4E4E4D4D4D4C4C4C4B4B4BBF
:101C50004A4A4A4949494848484747474746464605
:101C60004545454444444443434343424242424140
:101C70004141002B9C4630D477002BD01CB54FEA55
:101C8000370703B44FF010004FF01001BAF1000F06
:101C900006D0BCF1000FDCBF40F0080040F00801A6
:101CA0004FF000000FBCBDE810400BF1010BBBF181
:101CB000010F08BF5FEA170722BF12F1010211F1FD
:101CC00001014FF0004143F1000300F0004043EAFE
:101CD00000007047F9D35708D0E746EA064613F1EB
:101CE000400F4FEA16461FDD13F1200FDFBF1643EA
:101CF0000A46002120335B42BED0C3F1200746EAEA
:101D0000064602FA07F74FEA164646EA0706C3F107
:101D1000200722FA03F201FA07F721FA03F14FF044
:101D2000000342EA0702A7E746EA020646EA064639
:101D30004FEA164646EA0106BCBF46EA0646360C9E
:101D40004FF000034FF000024FF0000194E72DE93F
:101D5000804C9A46934670B491E8380007C831EA3F
:101D6000400C48BF34EA430C03D5FFF7E6FDFFF70C
:101D700080FFF0BCBDE8008C2DE9804C9A4693466C
:101D800070B491E8380007C810F0804F08BF13F016
:101D9000804F03D100F005F8FFF76BFFF0BCBDE802
:101DA000008C20F07F4780EA030023F07F4C07EB94
:101DB0000C03A3F57C5300F00040A3F1FE0392F066
:101DC000000F00F0B38095F0000F00F077802DE950
:101DD00001494FEA11404FEA144621EA004800FB4E
:101DE00006FC24EA064708FB06F607FB08F800FB9A
:101DF00007F718EB06484CEB164C4FEA124B18EB62
:101E000007484FEA15464CEB174022EA0B4E0BFBF6
:101E100006FC25EA06470EFB06F607FB0EFE0BFB4B
:101E200007F71EEB064E4CEB164C4FF000061EEB70
:101E3000074E4CEB174B18EB0B0840F1000018EB6A
:101E40000E0B58EB000840F100008F1A4FF0000114
:101E50003CBFC943661B14BFB5EB040C00213CBF5B
:101E6000C943F61B4FEA17444EEA8E0E27EA044593
:101E70004FEA1C4704FB07622CEA074C05FB07F7F7
:101E80000CFB05F604FB0CFC16EB074642EB174275
:101E900016EB0C4642EB1C421BEB060658EB02020B
:101EA000414146EA9E0601D5BDE80189B619524175
:101EB00041EB0101A3F10103BDE801894FEA14459B
:101EC0004FEA114724EA054621EA074C05FB07F4CF
:101ED00006FB07F70CFB06F105FB0CFC11EB0741B9
:101EE00044EB17444FEA124711EB0C4144EB1C44FE
:101EF00022EA074C05FB07F206FB07F70CFB06F688
:101F000005FB0CFC16EB074642EB174216EB0C46A2
:101F100042EB1C456A1854F1000148BF7047B619DE
:101F2000524141EB0101A3F10103704795F0000F0D
:101F300037D04FEA11424FEA144721EA024624EA19
:101F4000074C02FB07F106FB07F70CFB06F402FB4C
:101F50000CFC14EB074441EB17414FEA154714EB17
:101F60000C4441EB1C4125EA074C02FB07F506FB3C
:101F700007F70CFB06F602FB0CFC16EB074645EBDD
:101F8000174516EB0C4645EB1C42121951F10001A6
:101F900048BF7047B619524141EB0101A3F101035B
:101FA00070474FEA14454FEA114724EA054621EAF3
:101FB000074C05FB07F106FB07F70CFB06F24FF099
:101FC000000605FB0CFC12EB074241EB174112EB3C
:101FD0000C4251EB1C4148BF7047921841EB010184
:101FE000A3F10103704770B504460025206880689E
:101FF00000F00100F0B12068806820F00100216845
:10200000886001F045FA05460EE001F041FA401BF8
:10201000022809D9A06A40F01000A062E06A40F0EE
:102020000100E062012070BD2068806800F00100BE
:102030000028EAD10020F6E738B504460025002044
:1020400000902068806800F0010080BB20688068F4
:1020500040F0010021688860164800681649B0FB0E
:10206000F1F0009002E00098401E009000980028D7
:10207000F9D101F00DFA054613E001F009FA401B11
:1020800002280ED9A06A40F01000A062E06A40F079
:102090000100E06200BF002084F8240000BF01209E
:1020A00038BD2068806800F001000028E5D00020DD
:1020B000F6E700000000002040420F0000BFFEE7EE
:1020C00010B5024800F0B8FD10BD0000E806002081
:1020D00010B5024800F0B0FD10BD00002C07002034
:1020E00030B590F840500124AC40C56B6C6004687A
:1020F00063604468102C04D10468A2600468E16045
:1021000003E00468A1600468E26030BD704700002D
:1021100070B50446B3F5804F13D1D1E9000540EA0C
:1021200005108D6840EA05208D6928438D8940EAB5
:10213000054054F82250064E3540284344F822000A
:1021400003E06FF0704044F82200002070BD0000F2
:102150000000F0CF70B50246086852F8200020F069
:1021600001000E6842F826008868082801D1402343
:1021700000E00023486818438E683043CE6830433F
:102180000E6930434E693043CE6930430E6A3043A6
:102190004E6A30438E6A3043CE6A30430E6B40EA5B
:1021A000060488690443486B0443074D45F4806581
:1021B00045F4E025086852F82000A84320430E6843
:1021C00042F82600002070BD7FFB080010B50346D2
:1021D000D1E9000440EA04108C6840EA04208C89AC
:1021E00040EA0444088A401E44EA0054087D801EE8
:1021F00044EA00608C692043541C53F8244004F0E6
:1022000040442043541C43F82400002010BD00002B
:1022100010B5ADF5267D282229A110A8FEF734FBC4
:102220000B2231A11CA804F0CFFF0446002C3DD1A5
:102230001BAB272210A91CA805F0E0F9044634B90D
:102240001B9820B110A92BA008F01AF803E0214632
:1022500031A008F015F800211CA804F0C2FE4021AE
:102260006846FEF76DFB1AAB402269461CA805F0D4
:10227000A2F8044634B91A9820B169462BA007F099
:10228000FFFF03E0214632A007F0FAFF694610A8DD
:10229000FEF77EFB18B933A007F0F2FF02E03DA085
:1022A00007F0EEFF1CA804F08BFE03E0214644A0DB
:1022B00007F0E6FF0020494908700DF5267D10BDA6
:1022C00048656C6C6F205344204361726421205434
:1022D00068697320697320612074657374206D656B
:1022E00073736167652E0000303A746573742E74E1
:1022F00078740000E58699E585A5E68890E58A9FD3
:102300002120E58699E585A5E58685E5AEB93A20E3
:1023100025730D0A00000000E58699E585A5E5A472
:10232000B1E8B4A520282564290D0A00E8AFBBE573
:102330008F96E68890E58A9F2120E8AFBBE58F96CF
:10234000E58685E5AEB93A2025730D0A0000000048
:10235000E8AFBBE58F96E5A4B1E8B4A520282564D5
:10236000290D0A003E3E3E20E8AFBBE58699E6B562
:102370008BE8AF95E9809AE8BF87EFBC81E695B01E
:10238000E68DAEE4B880E887B4E38082203C3C3C34
:102390000D0A00003E3E3E20E8ADA6E5918AEFBC66
:1023A0009AE8AFBBE58699E695B0E68DAEE4B88DC8
:1023B000E58CB9E9858DEFBC81203C3C3C0D0A00E1
:1023C000E69687E4BBB6E68993E5BC80E5A4B1E870
:1023D000B4A520282564290D0A000000080100206A
:1023E000F8B5044600260020009000BF94F82400B1
:1023F000012801D10220F8BD012084F8240000BF8B
:102400002046FFF7F0FD0646002E62D1A06A20F4B8
:10241000885040F00200A062022001F0EFF830493D
:102420000968B1FBF0F04000009002E00098401E07
:10243000009000980028F9D12046FFF7FDFD2068A4
:10244000806840F008002168886001F021F80546A6
:1024500011E001F01DF8401B0A280CD9A06A20F0F9
:10246000020040F01000A06200BF002084F82400A9
:1024700000BF0120BFE72068806800F00800002846
:10248000E7D12068806840F004002168886000F08F
:10249000FFFF054611E000F0FBFF401B0A280CD9A6
:1024A000A06A20F0020040F01000A06200BF0020EF
:1024B00084F8240000BF01209DE72068806800F0B8
:1024C00004000028E7D1A06A20F0020040F00100DB
:1024D000A06200BF002084F8240000BF30468AE7D5
:1024E0000000002038B5024600230020009000BF05
:1024F00092F82400012801D1022038BD012082F881
:10250000240000BF4868072812D21068406B0C797D
:10251000641E04EB84051F24AC40A0430D796D1E9E
:1025200005EB85050C68AC4020431468606327E028
:1025300048680D2812D21068006B0C79E41F04EB78
:1025400084051F24AC40A0430D79ED1F05EB8505E4
:102550000C68AC4020431468206311E01068C06A26
:102560000C790D3C04EB84051F24AC40A0430D798D
:102570000D3D05EB85050C68AC4020431468E06216
:1025800008680A2812D31068C0680C780A3C04EB6B
:1025900044050724AC40A0430D780A3D05EB4505F2
:1025A0008C68AC4020431468E0600FE0106800695C
:1025B0000C7804EB44050724AC40A0430D7805EBF0
:1025C00045058C68AC4020431468206108681028D9
:1025D00002D00868112827D1174C1068A0421ED1DC
:1025E0001068806800F40000F0B91068806840F45A
:1025F00000001468A0600868102815D10F48006812
:102600000F4CB0FBF4F000EB80004000009002E0C3
:102610000098401E009000980028F9D104E0906ACC
:1026200040F020009062012300BF002082F82400C7
:1026300000BF184661E700000024014000000020B0
:1026400040420F0001460868C06C70472DE9F04118
:102650000446002700250026A84614B90120BDE83D
:10266000F081A06810B1207D00B100BFA06A30B930
:102670000020E06284F82400204600F097F820460D
:10268000FFF7B1FC0746A06A00F01000002873D1E4
:10269000002F7ED1A06A20F4885040F00200A06292
:1026A0003F4AD4E90001904208D1E069B0F5402FDB
:1026B00002D14FF4002002E0E06900E0E06901434C
:1026C000207B41EA40000643A068B0F5807F02D03D
:1026D000A068012802D14FF4807000E0002005437B
:1026E000207D012811D1207B38B9A069401E4FF40C
:1026F000006141EA4030054307E0A06A40F0200055
:10270000A062E06A40F00100E0622068406820F4C6
:102710006940284321684860206880682149084052
:10272000304321688860A068B0F5807F02D0A0683F
:10273000012802D14FF4807000E00020B0F5807FC6
:1027400003D1208A401E4FEA00582068C06A20F456
:10275000700040EA08002168C86220688068124959
:102760000840B04209D10020E062A06A20F00200D7
:1027700040F00100A06211E00BE0A06A20F002002E
:1027800040F01000A062E06A40F00100E062012722
:1027900004E0A06A40F01000A062012738465EE71E
:1027A000003C0140FDF7E1FFFE0E1FFF70470000F7
:1027B000F8B504460D46002600200090002700F0E2
:1027C00067FE06462068806800F4807050B1A06AF9
:1027D00040F02000A06200BF002084F8240000BF69
:1027E0000120F8BD2068406800F48070F8B92068C6
:1027F000C06A00F47000D0B912E0681C80B125B145
:1028000000F046FE801BA8420AD9A06A40F00400EE
:10281000A06200BF002084F8240000BF0320E0E78E
:102820002068006800F002000028E6D050E0022096
:1028300000F0E4FE36490968B1FBF0F0216809694F
:10284000344A114091B92168C9689211114069B99F
:1028500021680969304A114031B92168C96892116B
:10286000114009B9142117E0292115E021680969EF
:10287000294A114021B92168C9689211114041B11A
:1028800021680969254A114029B92168C9681140A0
:1028900009B9542100E0FC2100FB01F715E0681C98
:1028A00080B125B100F0F4FD801BA8420AD9A06ACE
:1028B00040F00400A06200BF002084F8240000BFA4
:1028C00003208EE70098401C00900098B842E6D3A1
:1028D0006FF0120021680860A06A40F40070A062E6
:1028E0002068806800F46020B0F5602F0DD1207B57
:1028F00058B9A06A20F48070A062A06A00F48050E9
:1029000018B9A06A40F00100A062002069E7000049
:102910000000002024499224922449124992240064
:1029200070B50446002500BF94F82400012801D1A9
:10293000022070BD012084F8240000BF2046FFF76C
:102940007BFB0546002D77D1A06A40F20121884328
:1029500040F48070A0623C492068884208D13B481E
:10296000006800F4702008B9012002E0002000E0B7
:10297000012078B1A06A20F48010A062206840682D
:1029800000F4806000B3A06A20F4005040F480504E
:10299000A06219E0A06A40F48010A0622B49091FD0
:1029A0002068884203D028492068884204D12748FB
:1029B000006800F4806000E0002028B1A06A20F4E4
:1029C000005040F48050A062A06A00F4805020B112
:1029D000E06A20F00600E06201E00020E06200BF53
:1029E000002084F8240000BFC01E21680860206811
:1029F000806800F46020B0F5602F16D1124920687D
:102A0000884208D11148006800F4702008B90120FC
:102A100002E0002000E0012038B12068806840F426
:102A2000A000216888600CE006E02068806840F41F
:102A300080102168886004E000BF002084F8240032
:102A400000BF284675E7000000280140042401402B
:102A500070B50446002500BF94F82400012801D178
:102A6000022070BD012084F8240000BF2046FFF73B
:102A7000BAFA05462DB9A06A20F4885040F001004A
:102A8000A06200BF002084F8240000BF2846E8E7C9
:102A900070B50446002594F82100022803D00420D4
:102AA000A0630125C1E02068006820F00E002168C5
:102AB00008602068006820F00100216808605C4917
:102AC0002068884252D95A4978392068884201D111
:102AD000012047E0564964392068884201D110201E
:102AE00040E0534950392068884201D1801539E0CF
:102AF0004F493C392068884201D1801432E04C496A
:102B000028392068884202D14FF480302AE04849B1
:102B100014392068884202D14FF4801022E04449E1
:102B20002068884201D140041CE042492068884264
:102B300001D1012016E03F4914312068884201D1BB
:102B400010200FE03B4928312068884201D18015D0
:102B500008E038493C312068884201D1801401E006
:102B60004FF480303349091F086051E0304978390B
:102B70002068884201D1012047E02D49643920684E
:102B8000884201D1102040E029495039206888420C
:102B900001D1801539E026493C392068884201D1AD
:102BA000801432E0224928392068884202D14FF44B
:102BB00080302AE01E4914392068884202D14FF43F
:102BC000801022E01A492068884201D140041CE0AC
:102BD00018492068884201D1012016E015491431B6
:102BE0002068884201D110200FE012492831206866
:102BF000884201D1801508E00E493C3120688842A6
:102C000001D1801401E04FF48030094980394860D7
:102C1000012084F8210000BF002084F8200000BFBC
:102C2000606B10B12046616B8847284670BD00007C
:102C3000800002400804024070B50446E06B05685D
:102C40002068066894F84010042088402840002836
:102C500075D006F004000028FAD02068006800F063
:102C6000200028B92068006820F00400216808606E
:102C7000D5492068884254D9D34978392068884298
:102C800001D1042049E0D04964392068884201D14B
:102C9000402042E0CC4950392068884201D10015DB
:102CA0003BE0C9493C392068884202D14FF480405A
:102CB00033E0C54928392068884202D14FF480208A
:102CC0002BE0C14914392068884202D14FF48000BA
:102CD00023E0BD492068884201D1C0041DE0BB4902
:102CE0002068884201D1042017E0B84914312068D7
:102CF000884201D1402010E0B44928312068884240
:102D000001D1001509E0B1493C312068884202D167
:102D10004FF4804001E04FF48020AC49091F086067
:102D200054E0A94978392068884201D104204AE05A
:102D3000A54964392068884202D1402043E04CE034
:102D4000A14950392068884201D100153BE09E49D5
:102D50003C392068884202D14FF4804033E09A49E0
:102D600028392068884202D14FF480202BE0964910
:102D700014392068884202D14FF4800023E0924940
:102D80002068884201D1C0041DE090492068884233
:102D900001D1042017E08D4914312068884201D107
:102DA000402010E0894928312068884201D100156F
:102DB00009E086493C312068884202D14FF48040C6
:102DC00001E04FF48020804980394860E06A0028A3
:102DD00002D02046E16A8847F4E094F840100220CF
:102DE00088402840002871D006F002000028FAD060
:102DF0002068006800F0200040B92068006820F0DA
:102E00000A0021680860012084F821006E492068CA
:102E1000884254D96C4978392068884201D102200F
:102E200049E0694964392068884201D1202042E0A4
:102E3000654950392068884201D140153BE062491C
:102E40003C392068884202D14FF4005033E05E499B
:102E500028392068884202D14FF400302BE05A49CB
:102E600014392068884202D14FF4001023E05649FB
:102E70002068884201D180041DE0544920688842BE
:102E800001D1022017E0514914312068884201D154
:102E9000202010E04D4928312068884201D140159A
:102EA00009E04A493C312068884202D14FF4005081
:102EB00001E04FF400304549091F086054E04249E1
:102EC00078392068884202D102204AE057E03E4922
:102ED00064392068884201D1202042E03A495039C3
:102EE0002068884201D140153BE037493C392068D1
:102EF000884202D14FF4005033E03349283920682A
:102F0000884202D14FF400302BE02F491439206859
:102F1000884202D14FF4001023E02B4920688842F8
:102F200001D180041DE029492068884201D1022096
:102F300017E0264914312068884201D1202010E092
:102F4000224928312068884201D1401509E01F49F3
:102F50003C312068884202D14FF4005001E04FF428
:102F6000003019498039486000BF002084F82000F3
:102F700000BFA06A30B32046A16A884722E094F8D7
:102F80004010082088402840E0B106F00800C8B191
:102F90002068006820F00E002168086094F8401056
:102FA00001208840E16B48600120A06384F8210083
:102FB00000BF002084F8200000BF206B10B1204625
:102FC000216B884770BD0000800002400804024069
:102FD0000146002209B9012070471E4B086898423B
:102FE0000BD21D4B0868C01A1423B0FBF3F080000D
:102FF000086419480838C8630AE0164B0868C01A04
:103000001423B0FBF3F08000086412480838C8634A
:10301000022081F821000868026843F6F0708243BC
:10302000D1E901031843CB6818430B6918434B6976
:1030300018438B691843CB69184302430868026040
:1030400000208863012081F82100002081F8200001
:1030500000BFC1E708040240080002402DE9F0412A
:1030600004460D4616461F464FF0000800BF94F870
:103070002000012802D10220BDE8F081012084F85F
:10308000200000BF94F8210001282CD1022084F8F0
:1030900021000020A0632068006820F00100216862
:1030A00008603B46324629462046FFF719F8E06A99
:1030B00030B12068006840F00E00216808600BE025
:1030C0002068006820F0040021680860206800681B
:1030D00040F00A00216808602068006840F00100A4
:1030E0002168086006E000BF002084F8200000BFCF
:1030F0004FF002084046BFE770B5044600F0C8F93B
:1031000006462546681C10B104480078054400BFF7
:1031100000F0BEF9801BA842FAD370BD4800002021
:103120002DE9F847024600239C467BE14FF0010859
:1031300008FA03F4D1F8008008EA0400A0427DD127
:10314000DFF8F4A2D1F80480A8EB0A09D0453AD000
:1031500014DCB8F1030F50D009DCB8F1000F31D006
:10316000B8F1010F1CD0B8F1020F49D120E0B8F13D
:10317000110F18D0B8F1120F42D11EE0B9F5881F17
:1031800025D006DCB9F5803F20D0B9F5801F37D1B6
:103190001AE0B9F5001F18D0B9F5041F30D117E0B7
:1031A000D1F80CC02DE0D1F80C8008F1040C28E017
:1031B000D1F80C8008F1080C23E0D1F80C8008F15C
:1031C0000C0C1EE000BF00BF00BF00BF00BF00BF6F
:1031D000D1F80880B8F1000F02D14FF0040C0BE0D9
:1031E000D1F80880B8F1010F03D14FF0080C146139
:1031F00002E04FF0080C546103E04FF0000C00E0D7
:1032000000BF00BFFF2801D8904601E002F104088A
:103210004646FF2802D84FEA830803E0A3F10808D6
:103220004FEA88084746D6F800804FF00F0909FAA0
:1032300007F928EA09080CFA07F900E07AE048EAF9
:103240000908C6F80080D1F8048008F08058B8F169
:10325000805F6FD100BFDFF8E481D8F8188048F0B4
:103260000108DFF8D891C9F81880C846D8F8188046
:1032700008F00108CDF8008000BF00BF4FEAB93860
:103280004FEA930958F829504FEA83784FEA1879A2
:103290004FF00F0808FA09F825EA0805DFF8A081C1
:1032A000424502D14FF0000824E0DFF89881424502
:1032B00002D14FF001081DE0DFF88C81424502D1B8
:1032C0004FF0020816E0DFF88481424502D14FF04A
:1032D00003080FE0DFF87881424502D14FF004087F
:1032E00008E0DFF87081424502D14FF0050801E0A7
:1032F0004FF006084FEA83794FEA197908FA09F87E
:1033000048EA0505DFF850814FEA930948F829504B
:10331000D1F8048008F48038B8F5803F0BD1DFF88D
:103320003C81D8F8008048EA0008DFF83091C9F8FD
:1033300000800AE075E0DFF82481D8F8008028EAF0
:103340000008DFF81891C9F80080D1F8048008F46B
:103350000038B8F5003F0ED1DFF8008108F104080D
:10336000D8F8008048EA0008DFF8F09009F1040975
:10337000C9F800800DE0DFF8E48008F10408D8F80F
:10338000008028EA0008DFF8D49009F10409C9F8A0
:103390000080D1F8048008F48018B8F5801F0ED1A1
:1033A000DFF8B88008F10808D8F8008048EA00087B
:1033B000DFF8A89009F10809C9F800800DE0DFF8EE
:1033C0009C8008F10808D8F8008028EA0008DFF897
:1033D0008C9009F10809C9F80080D1F8048008F43C
:1033E0000018B8F5001F0ED1DFF8708008F10C0846
:1033F000D8F8008048EA0008DFF8609009F10C096D
:10340000C9F800800DE0DFF8548008F10C08D8F806
:10341000008028EA0008DFF8449009F10C09C9F897
:1034200000805B1CD1F8008028FA03F8B8F1000F87
:103430007FF47CAEBDE8F887000011100010024058
:1034400000080140000C0140001001400014014040
:1034500000180140001C0140080001400004014028
:10346000024693680B400BB1012000E0002070473A
:1034700010B5C26821EA020302EA010443EA0443E8
:10348000036110BD0AB1016101E00B0403617047E3
:1034900001480068704700004000002003480068B1
:1034A000034909780844014908607047400000203A
:1034B0004800002010B50848006840F01000064998
:1034C0000860032000F080F80F2000F007F800F0FB
:1034D0002BF8002010BD00000020024070B504460B
:1034E0000E4800784FF47A71B1FBF0F00C4909688E
:1034F000B1FBF0F5284601F019FB08B1012070BDC1
:10350000102C07D200222146501E00F01EF805485C
:10351000046001E00120F2E70020F0E7480000200D
:1035200000000020440000207047014608460028A3
:1035300009DB00F01F0301229A4043099B0003F1BD
:10354000E023C3F8002100BF70472DE9F05F8046FB
:103550000D461646002702F0F1FE074639462A4678
:10356000334601F00700C0F1070ABAF1040F02D98F
:103570004FF0040A01E0C0F1070AD14600F1040A45
:10358000BAF1070F02D24FF0000A01E0A0F1030ADE
:10359000D4464FF0010A0AFA09FAAAF1010A0AEA26
:1035A000020A0AFA0CFA4FF0010B0BFA0CFBABF112
:1035B000010B0BEA030B4AEA0B042146404602F0DA
:1035C000C5FEBDE8F09F000000BF00F00702064BFB
:1035D00019684FF6FF031940044B0B4343EA0221DD
:1035E000014B196000BF70470CED00E00000FA05C8
:1035F000012001490862704700000E422DE9F043A6
:1036000085B0064642A30FCB01AC0FC444A00068AE
:1036100000904FF00008002500270024A146042E4A
:1036200036D004DC012E3BD0022E6BD15FE0082E99
:1036300032D0102E66D13B484468006800F080709C
:1036400000B301A8C4F38341475C04F4803070B137
:1036500034484068C0F340401DF8008004F48030D6
:1036600040B13148B0FBF8F000FB07F502E02F480D
:1036700007FB00F52B48406800F48000B0F5800F90
:1036800001D1A94603E068000321B0FBF1F93AE05B
:1036900000F0D2F9814636E000F0CEF9814632E002
:1036A0002048046A04F44070B0F5807F05D104F02E
:1036B000020010B14FF4004918E004F44070B0F576
:1036C000007F07D11748406A00F0020010B149F6A8
:1036D00040490BE004F44070B0F5407F06D111483A
:1036E000006800F4003008B14FF224490BE000F00C
:1036F00093F90C494968C1F38131491C4900B0FB79
:10370000F1F900E000BF00BF484605B0BDE8F08316
:1037100002030405060708090A0B0C0D0E0F101012
:10372000010200000010024000127A0000093D0072
:10373000F8B5044600260025207800F00100002896
:103740006BD000274348C06900F0805070B900BFBB
:103750004048C06940F080503E49C8610846C06991
:1037600000F08050009000BF00BF01273A48006879
:1037700000F48070B0B93848006840F48070364971
:103780000860FFF785FE064606E0FFF781FE801B16
:10379000642801D90320F8BD2F48006800F4807028
:1037A0000028F2D02B48006A00F440752DB3A088A1
:1037B00000F44070A84220D02648006A20F44075EA
:1037C000012026490860002008602248056205F0B3
:1037D000010090B1FFF75CFE064608E0FFF758FED7
:1037E000801B41F28831884201D90320D3E7194870
:1037F000006A00F002000028F0D01648006A20F4A9
:1038000040706168084313490862012F04D10846DB
:10381000C06920F08050C86100BF207800F002002D
:10382000022807D10B48406820F44040A1680843B3
:1038300008494860207800F01000102807D105489A
:10384000406820F480006169084302494860002014
:10385000A1E7000000100240007000404004424216
:1038600070B504460D460CB9012070BD5A48006879
:1038700000F00700A8420ED25748006820F0070069
:103880002843554908600846006800F00700A84230
:1038900001D00120E9E7207800F0020002281DD1C4
:1038A000207800F00400042805D14C48406840F41A
:1038B000E0604A494860207800F00800082805D1F7
:1038C0004648406840F46050444948604348406876
:1038D00020F0F000A168084340494860207800F0DB
:1038E000010078B36068012806D13C48006800F404
:1038F000003090B90120B8E76068022806D1374847
:10390000006800F0007040B90120AEE7334800685D
:1039100000F0020008B90120A7E73048406820F015
:103920000300616808432D494860FFF7B1FD064672
:1039300009E0FFF7ADFD801B41F28831884202D9D2
:10394000032092E707E02548406800F00C0061681A
:10395000B0EB810FEDD12048006800F00700A842CD
:103960000ED91D48006820F0070028431A49086056
:103970000846006800F00700A84201D0012074E763
:10398000207800F00400042807D11448406820F48F
:10399000E060E168084311494860207800F00800C1
:1039A000082808D10D48406820F46050216940EA99
:1039B000C1000A49486000F03FF808494968C1F36E
:1039C0000311074A515CC840064908600648006870
:1039D000FFF784FD002048E700200240001002406D
:1039E00092F5000800000020440000200148006813
:1039F000704700000000002000B5FFF7F7FF044902
:103A00004968C1F30221034A515CC84000BD00006F
:103A100000100240A2F5000800B5FFF7E7FF0449D7
:103A20004968C1F3C221034A515CC84000BD00008F
:103A300000100240A2F50008F0B585B00FF26C0C42
:103A40009CE8E01001A8A0E8E0101CA52D680095F6
:103A500000210022002300240020194D696801F094
:103A60000C05F5B1042D02D0082D19D101E015483F
:103A700019E001ADC1F38346AC5D01F4803555B169
:103A80000F4D6D68C5F340451DF805200D4D65438C
:103A9000B5FBF2F302E00C4D04FB05F3184602E01F
:103AA00000BF084800BF00BF05B0F0BD0203040519
:103AB000060708090A0B0C0D0E0F1010010200007A
:103AC0000010024000127A0000093D00F8B50446DB
:103AD0000CB90120F8BD207800F00100002878D052
:103AE000F848406800F00C0004280CD0F548406805
:103AF00000F00C00082811D1F248406800F4803032
:103B0000B0F5803F0AD1EF48006800F4003000288B
:103B10005FD0606800285CD10120DBE700BF6068EF
:103B2000B0F5803F06D1E748006840F48030E549B1
:103B3000086028E0606858B9E248006820F48030E6
:103B4000E04908600846006820F4802008601AE018
:103B50006068B0F5A02F0BD1DA48006840F48020EF
:103B6000D84908600846006840F4803008600AE0E0
:103B7000D448006820F48030D249086008460068C4
:103B800020F48020086000BF606888B1FFF780FCE7
:103B9000054606E0FFF77CFC401B642801D90320A2
:103BA00098E7C848006800F400300028F2D010E020
:103BB000FFF76EFC054606E0FFF76AFC401B642831
:103BC00001D9032086E7BF48006800F400300028D0
:103BD000F2D1207800F00200022857D1B94840689D
:103BE00000F00C0050B1B748406800F00C00082805
:103BF00018D1B448406800F4803098B9B1480068E2
:103C000000F0020020B12069012801D0012061E705
:103C1000AC48006820F0F800616940EAC100A94999
:103C2000086033E02069E8B10120A7490860FFF788
:103C30002FFC054606E0FFF72BFC401B022801D9AC
:103C4000032047E79F48006800F002000028F2D0F8
:103C50009C48006820F0F800616940EAC100994979
:103C6000086013E0002098490860FFF711FC054642
:103C700006E0FFF70DFC401B022801D9032029E7CD
:103C80009048006800F002000028F2D1207800F08F
:103C9000080008282DD1A069B8B101208B4908601F
:103CA000FFF7F6FB054606E0FFF7F2FB401B022894
:103CB00001D903200EE78348406A00F00200002883
:103CC000F2D0012001F09AFB13E000207F49086048
:103CD000FFF7DEFB054606E0FFF7DAFB401B022894
:103CE00001D90320F6E67748406A00F00200002878
:103CF000F2D1207800F00400042873D10027714825
:103D0000C06900F0805070B900BF6E48C06940F0D3
:103D100080506C49C8610846C06900F0805000902E
:103D200000BF00BF01276A48006800F48070B0B986
:103D30006748006840F4807065490860FFF7A8FB99
:103D4000054606E0FFF7A4FB401B642801D90320C9
:103D5000C0E65F48006800F480700028F2D000BF21
:103D6000E068012806D15748006A40F00100554933
:103D7000086227E0E06858B95248006A20F0010064
:103D8000504908620846006A20F00400086219E001
:103D9000E06805280BD14B48006A40F0040049490F
:103DA00008620846006A40F0010008620AE04548DF
:103DB000006A20F00100434908620846006A20F0CA
:103DC0000400086200BFE068A0B1FFF761FB054690
:103DD00009E0FFF75DFB401B41F28831884202D9C0
:103DE000032077E622E03748006A00F0020000284E
:103DF000EFD012E0FFF74CFB054608E0FFF748FB69
:103E0000401B41F28831884201D9032062E62D48E7
:103E1000006A00F002000028F0D1012F05D12948E6
:103E2000C06920F080502749C86100BFE069C8B36D
:103E30002448406800F00C00082860D0E06902289F
:103E400048D1002020490866FFF722FB054606E01E
:103E5000FFF71EFB401B022801D903203AE6194850
:103E6000006800F000700028F2D1206AB0F5803FB1
:103E700007D11448406820F40030A1680843114974
:103E80004860D4E9080108430E49496821F47411D7
:103E900008430C49486001200B490866FFF7F8FA0F
:103EA000054607E03DE0FFF7F3FA401B022801D981
:103EB00003200FE60348006800F000700028F2D0ED
:103EC0002FE0000000100240000042428004424205
:103ED00000700040002014490866FFF7D9FA054633
:103EE00006E0FFF7D5FA401B022801D90320F1E5CF
:103EF0000E48006800F000700028F2D111E0E0697F
:103F0000012800D1E6E50948466806F48031206AB8
:103F1000814204D106F47011606A814201D001200F
:103F2000D8E50020D6E50000000042420010024023
:103F300010B5034600220020024A02EB81021468F9
:103F4000A0B210BD006C004010B50346002003482D
:103F500000EB810094B2046010BD0000006C0040D2
:103F600070B5044600250CB9012070BD607C20B9F5
:103F700000202074204600F05BF802206074204688
:103F800000F0A2F818B1042060740120EDE720468B
:103F900001F048FA18B1042060740120E5E72068B8
:103FA000406820F0070021684860A06828B11F48D9
:103FB000006820F001001D4908601C48001F0068CF
:103FC00020F46070A16808431849091F0860606800
:103FD000401C08B1656809E00120FFF70FFB0546AA
:103FE0001DB9042060740120BFE76D1E2068806841
:103FF00020F00F0040EA1540216888602068C06802
:1040000065F30F002168C860204601F028FA18B156
:10401000042060740120A8E70021E173012161738D
:10402000A1730120607400209FE70000306C004005
:1040300030B591B00546C8240120214908602148C7
:10404000006A40F001001F49086204E0601E84B26B
:10405000052002F0DFFC2CB11A48006A00F00200D3
:104060000028F3D0ACB90820079001200A90002066
:104070000E9007A8FFF72AFD012001904002029050
:1040800001A8FFF755FB45F25101002008F0DAF8CE
:1040900014E00420079001200A9000200E9007A849
:1040A000FFF714FD012001900002029001A8FFF724
:1040B0003FFB45F25001002008F0C4F811B030BDBC
:1040C0003C0442420010024070B5044600250CB981
:1040D000012070BD2068406820F008002168486019
:1040E000FFF7D6F9054607E0FFF7D2F9401BB0F518
:1040F0007A7F01D90320ECE72068406800F00800CF
:104100000028F1D00020E4E710B50246506E800F81
:104110000870506EC0F383604870506EC0F3016049
:104120008870506E000CC870B2F86400000A087104
:1041300092F864004871906E000DC880906EC0F3D4
:10414000034008726820805AC0F3C030487268206B
:10415000805AC0F3803088726820805AC0F34030A3
:10416000C8726820805AC0F300300873002048737A
:10417000506C002836D16820805A8005030DD06E1F
:1041800043EA90700861D06EC0F3C2600875D06ECB
:10419000C0F302604875D06EC0F342508875D06E8F
:1041A000C0F38240C875D06EC0F3C230087608698B
:1041B000401C50650B7E506D03F007039B1C0124CF
:1041C0009C4060435065087A00F00F03012098403E
:1041D0009065D2E915035B0A5843D0654FF400732C
:1041E000136621E0506C012813D16820805C8006A2
:1041F000830AD06E43EA104008610869401C8302BC
:104200005365536DD3654FF400739365936D1366D7
:104210000AE02E4813689863906B40F080509063DA
:10422000012082F8340010BD6C20805AC0F3803029
:1042300001F8190F6C20805AC0F3C61048706C202A
:10424000805C00F07F008870106FC00FC870106F26
:10425000C0F341700871106FC0F382604871106F35
:10426000C0F383508871106FC0F34050C8710020B4
:104270000872106FC0F3004048727020805AC0F37B
:10428000C03088727020805AC0F38030C8727020AD
:10429000805AC0F3403008737020805AC0F3003059
:1042A00048737020805AC0F3812088737020805A30
:1042B000C0F30120C8737020805CC0F3460008740E
:1042C0000120487419390020ADE70000FF054000C7
:1042D000F8B50446002000906946204601F0FEFD36
:1042E000054615B1A06B2843A0630098C0F3432690
:1042F0003046F8BD10B504460CB9012010BD94F845
:10430000340020B900202077204600F053F8032025
:1043100084F83400204600F00BF808B10120EDE7E6
:104320000020A0632063012084F834000020E5E72A
:1043300070B58AB00446002004900590069007905E
:1043400008907620099007A807C88DE80700206824
:1043500004A90EC901F016F9064616B101200AB0EB
:1043600070BD002012490860206801F025F9012085
:104370000F49A039C1F8A000204601F049FD0546CB
:104380003DB1012084F83400A06B2843A0630120D4
:10439000E5E7204601F0BAFC05463DB1012084F86E
:1043A0003400A06B2843A0630120D8E70020D6E7A3
:1043B000A000304210B586B0044600BF4B484069AB
:1043C00040F48060494948610846406900F48060D3
:1043D000019000BF00BF00BF00BF0846806940F0E9
:1043E000100088610846806900F01000019000BF4D
:1043F00000BF00BF00BF00BF0846806940F010004A
:1044000088610846806900F01000019000BF00BF7D
:1044100000BF00BF00BF0846806940F010008861FF
:104420000846806900F01000019000BF00BF00BF87
:1044300000BF00BF0846806940F010008861084650
:10444000806900F01000019000BF00BF00BF00BFF6
:1044500000BF0846806940F0100088610846806906
:1044600000F01000019000BF00BF00BF00BF00BF00
:104470000846806940F0200088610846806900F0A5
:104480002000019000BF00BF00BF881502900220ED
:104490000390012004900320059002A91448FEF720
:1044A0003FFE4FF40070029002A91148FEF738FE5B
:1044B0004FF48060029002A90D48FEF731FE4FF4E0
:1044C0000060029002A90A48FEF72AFE4FF48050CD
:1044D000029002A90648FEF723FE0420029002A9DA
:1044E0000448FEF71DFE06B010BD0000001002409B
:1044F00000100140001401402DE9FF4F89B004462F
:104500008B469946DDF858A0FEF7C2FF02900B9843
:1045100000905D46BBF1000F07D1A06B40F000603A
:10452000A06301200DB0BDE8F08F94F8340001289D
:104530007ED10020A063009800EB0901E06D81426C
:1045400005D9A06B40F00070A0630120EAE70320CA
:1045500084F8340000202168C862606C012802D011
:104560000098400200904FF40071206801F086F836
:104570008046B8F1000F0AD08E4821688863A06B8E
:1045800040EA0800A063012084F83400CAE74FF035
:10459000FF3003904FEA49200490902005900220BC
:1045A0000690002007900120089003A9206800F0E1
:1045B000C4FFB9F1010F07D90220206320680099D8
:1045C00001F0A8F8804606E00120206320680099E9
:1045D00001F0BCF88046B8F1000F0DD07548216895
:1045E0008863A06B40EA0800A063012084F83400CF
:1045F00000202063012095E7049E3AE02068406B8C
:1046000000F40040F0B1EEB10020019017E0206806
:1046100000F0DBFF07462F706D1C761E380A2870ED
:104620006D1C761E380C28706D1C761E380E00E04E
:10463000BAE028706D1C761E0198401C019001980C
:104640000828E4D3FEF724FF0299401A504502D20D
:10465000BAF1000F0DD1574821688863A06B40F074
:104660000040A063012084F8340000202063032070
:1046700058E72068406B40F22A3108400028BDD03E
:104680002068406B00F48070D0B1B9F1010F17D9E8
:10469000606C032814D0206801F0FCF88046B8F163
:1046A000000F0DD0434821688863A06B40EA0800E2
:1046B000A063012084F8340000202063012031E74A
:1046C0002068406B00F0080068B13A4821688863B0
:1046D000A06B40F00800A063012084F834000020A3
:1046E000206301201EE72068406B00F0020068B1E3
:1046F000304821688863A06B40F00200A06301206D
:1047000084F834000020206301200BE72068406B10
:1047100000F0200068B1274821688863A06B40F052
:104720002000A063012084F83400002020630120D1
:10473000F8E629E0206800F048FF07462F706D1C5E
:10474000761E380A28706D1C761E380C28706D1C79
:10475000761E380E28706D1C761EFEF799FE0299A3
:10476000401A504502D2BAF1000F0DD1114821680C
:104770008863A06B40F00040A063012084F83400FF
:10478000002020630120CDE62068406B00F400107B
:1047900008B1002ECED140F23A5021688863012042
:1047A00084F834000020BDE6A06B40F00050A06308
:1047B0000120B7E6FF0540002DE9F04F89B004461F
:1047C000894693469846FEF763FE0290DA464E46C7
:1047D000B9F1000F07D1A06B40F00060A063012089
:1047E00009B0BDE8F08F94F8340001287ED1002094
:1047F000A0630AEB0801E06D814205D9A06B40F08F
:104800000070A0630120EBE7032084F8340000204F
:104810002168C862606C012801D04FEA4A2A4FF42F
:104820000071206800F02AFF05464DB176482168E6
:104830008863A06B2843A063012084F83400CFE78D
:104840004FF0FF3003904FEA4820049090200590ED
:104850000020069007900120089003A9206800F02E
:104860006CFEB8F1010F07D9202020635146206863
:1048700001F02EF8054606E010202063514620681E
:1048800001F042F8054665B15F4821688863A06B76
:104890002843A063012084F8340000202063012015
:1048A0009EE7049F43E02068406B00F4804040B3E3
:1048B0003FB30020019021E030780090761C7F1EED
:1048C0003078009941EA00200090761C7F1E3078F5
:1048D000009941EA00400090761C7F1E30780099D4
:1048E00041EA00600090761C7F1E00E085E069468A
:1048F000206800F082FE0198401C01900198082871
:10490000DAD3FEF7C5FD0299411A1298814201D20D
:10491000129860B93C4821688863A06B2843A06363
:10492000012084F8340000202063032058E7206829
:10493000406B40F21A3108400028B4D02068406B28
:1049400000F48070B8B1B8F1010F14D9606C03287D
:1049500011D0206800F09EFF054665B12A48216805
:104960008863A06B2843A063012084F834000020F2
:104970002063012034E72068406B00F0080068B134
:10498000214821688863A06B40F00800A0630120E3
:1049900084F8340000202063012021E72068406B68
:1049A00000F0020068B1184821688863A06B40F0ED
:1049B0000200A063012084F834000020206301205D
:1049C0000EE72068406B00F0100068B10E482168C7
:1049D0008863A06B40F01000A063012084F83400CD
:1049E000002020630120FBE640F23A5021688863F2
:1049F000012084F834000020F2E6A06B40F0005063
:104A0000A0630120ECE60000FF05400070B50446FD
:104A10000E4615461CB1A069B0F5807F01D101207A
:104A200070BD94F8410028B9002084F84000204669
:104A300000F020F804F108012068FDF78BFB3146F7
:104A4000A2682068FDF7C2FB2946236BD4E9010266
:104A5000FDF75EFBA168206850F8210040F00100DE
:104A6000A268216841F82200012084F8410000205A
:104A7000D6E7000010B586B0044600BF1E48406966
:104A800040F480701C4948610846406900F4807019
:104A9000019000BF00BF00BF0846806940F02000C1
:104AA00088610846806900F02000019000BF00BFC7
:104AB00000BF0846806940F0400088610846806970
:104AC00000F04000019000BF00BF4CF20370029064
:104AD00002200390012004900320059002A90748BA
:104AE000FEF71EFB4FF68070029002A90448FEF705
:104AF00017FB06B010BD000000100240001401407A
:104B000000180140042808D14FF0E021096941F064
:104B100004014FF0E022116107E04FF0E021096944
:104B200021F004014FF0E0221161704770B5044696
:104B30002546681EB0F1807F01D301200FE0681E7A
:104B40004FF0E02148610F214FF0FF3001F0FEFBF4
:104B500000204FF0E021886107200861002070BD2F
:104B60007047704710B504460CB9012010BD94F889
:104B70003D0028B9002084F83C00204600F025F8CC
:104B8000022084F83D00211D206801F0EFF901208A
:104B900084F8460000BF84F83E0001213F20015503
:104BA000402001554120015500BF00BF012084F87D
:104BB000420043200155442001554520015500BFC6
:104BC000012084F83D000020D0E77047014691F8AD
:104BD0003D00012801D001207047022081F83D00EE
:104BE0000868C06840F001000B68D860164B086880
:104BF000984213D0154B086898420FD00868B0F15E
:104C0000804F0BD0124B0868984207D0114B0868B0
:104C1000984203D0104B086898420CD1086880680D
:104C200000F00702062A0CD00868006840F0010076
:104C30000B68186005E00868006840F001000B6828
:104C400018600020C8E70000002C0140003401403B
:104C50000004004000080040000C0040704710B500
:104C6000044620680069C0F34000D8B12068C068DD
:104C7000C0F34000B0B16FF002002168086101206C
:104C800020772068806900F0030018B12046FFF704
:104C9000E5FF05E0204600F0ADF8204600F0ABF857
:104CA0000020207720680069C0F38000D8B1206818
:104CB000C068C0F38000B0B16FF0040021680861E3
:104CC000022020772068806900F4407018B12046E7
:104CD000FFF7C4FF05E0204600F08CF8204600F006
:104CE0008AF80020207720680069C0F3C000D8B19E
:104CF0002068C068C0F3C000B0B16FF00800216840
:104D00000861042020772068C06900F0030018B112
:104D10002046FFF7A3FF05E0204600F06BF8204691
:104D200000F069F80020207720680069C0F30010C7
:104D3000D8B12068C068C0F30010B0B16FF01000A7
:104D400021680861082020772068C06900F440705D
:104D500018B12046FFF782FF05E0204600F04AF830
:104D6000204600F048F8002020772068006900F015
:104D7000010058B12068C06800F0010030B16FF048
:104D8000010021680861204600F036F820680069BB
:104D9000C0F3C01058B12068C068C0F3C01030B173
:104DA0006FF08000216808612046FFF7D9FE206877
:104DB0000069C0F3801058B12068C068C0F380104B
:104DC00030B16FF0400021680861204600F04CF8D7
:104DD00020680069C0F3401058B12068C068C0F373
:104DE000401030B16FF02000216808612046FFF7C5
:104DF000B8FE10BD7047704710B504461548844290
:104E000026D11548007818B34FF480611348FEF797
:104E100027FB012806D11248007818B90120104953
:104E200008700CE04FF480610C48FEF719FB30B9B4
:104E30000B480078012802D1002009490870084871
:104E40000078012804D107480088401C05490880E3
:104E500010BD0000A0060020150100200014014034
:104E60005500002016010020704770472DE9F047DB
:104E70000446206805682068C668206847694FF0C6
:104E80000008C14605F00F08B8F1000F0AD105F07F
:104E9000200038B106F0200020B1204601F032F9A0
:104EA000BDE8F087B8F1000F71D007F0010018B924
:104EB00006F4907000286AD005F0010030B106F4C5
:104EC000807018B1E06B40F00100E06305F0040071
:104ED00030B107F0010018B1E06B40F00200E06370
:104EE00005F0020030B107F0010018B1E06B40F0AE
:104EF0000400E06305F0080048B106F0200010B996
:104F000007F0010018B1E06B40F00800E063E06BCF
:104F100068B305F0200028B106F0200010B120464B
:104F200001F0F0F820684069C0F38019E06B00F0F0
:104F3000080010B9B9F1000F22D0204601F0B8F8EE
:104F40002068406900F04000B0B12068406920F05E
:104F5000400021684861606B50B11848616B48633C
:104F6000606BFDF795FD10B1606B416B88470CE0FD
:104F70002046FFF77AFF08E02046FFF776FF04E0BF
:104F80002046FFF772FF0020E06389E7FFE705F0A6
:104F9000800030B106F0800018B1204601F080F9A1
:104FA0007EE705F0400030B106F0400018B1204621
:104FB00001F08EF874E700BF72E700000960000896
:104FC00010B504460CB9012010BDA06900B100E085
:104FD00000BF94F8390028B9002084F83800204632
:104FE00000F028F8242084F839002068C06820F4F4
:104FF00000502168C860204601F0D4F8206800699C
:1050000020F49040216808612068406920F02A005F
:10501000216848612068C06840F400502168C86079
:105020000020E063202084F8390084F83A00002052
:10503000CAE7000010B586B00446284920688842B7
:105040004AD100BF00BF2648806940F004002449CF
:1050500088610846806900F00400019000BF00BF2D
:1050600000BF00BF00BF0846806940F004008861AF
:105070000846806900F00400019000BF00BF00BF37
:1050800000BF00BF0846806940F480408861084640
:10509000806900F48040019000BF00BF00BF481548
:1050A000029002200390012004900320059002A9A1
:1050B0000C48FEF735F84FF4806002900020039012
:1050C00002A90848FEF72CF82520FEF72EFA032245
:1050D00011462520FEF739FA06B010BD0038014010
:1050E000001002400008014010B5034693F83A0052
:1050F00020282FD101B10AB9012010BD00BF93F8BB
:105100003800012801D10220F7E7012083F8380098
:1051100000BF99629A85DA850020D863222083F83F
:105120003A0000BF002083F8380000BF1868C0684C
:1051300040F480701C68E0601868406940F001002D
:105140001C6860611868C06840F020001C68E0605E
:105150000020D2E70220D0E710B5044606492068B7
:10516000884207D1012205490548FFF7BDFF0348E2
:1051700007F04CFB10BD0000003801403E0000204D
:1051800084010020F7B50446154694F8390020281C
:105190003DD1019800B10DB90120FEBD00BF94F8CA
:1051A0003800012801D10220F7E7012084F83800F7
:1051B00000BF01982062A584E5840020E0632120DF
:1051C00084F839001348216B88621348216BC86248
:1051D0001248216B08630020216B486301AE2368ED
:1051E0001A1D31682B46206BFDF738FF6FF0400029
:1051F0002168086000BF002084F8380000BF2068E4
:10520000406940F08000216848610020C5E7022025
:10521000C3E700006D600008A36000081D6000087F
:10522000034A0168914202D10021024A117070477D
:10523000003801403F000020704700BFFEE700003B
:105240002DE9FF47062000F04BF8044640F6FF70BA
:10525000844203D3002004B0BDE8F0870CB91A489B
:10526000F9E7204609F0A1FA05460022174B09F09C
:105270001FFC07468846204609F097FA054600229B
:10528000134B09F0E1FA3A464346CDE9000109F033
:105290001DF9CDE9020109F02BF88146484609F0D5
:1052A000E3FD02460B46CDE902010020094909F061
:1052B0000DF90746084A094B05F048F8054609F07C
:1052C00017F882465046C6E70050C34700FEAF407D
:1052D00000F3E640006AF840B76DDBB66DDBF63FE1
:1052E0003EB50446002000900190029000940120F9
:1052F0000190072002900C48FDF7AAFB69460A4876
:10530000FDF7F0F808B100203EBD0748FDF708FBA7
:105310000A210548FDF74CFA18B90348FDF792F940
:10532000F2E70020F0E700007007002000B58BB026
:10533000182101A8FBF704FB00BF00BF29488069C2
:1053400040F00400274988610846806900F00400A5
:10535000009000BF00BF00BF00BF00BF08468069CB
:1053600040F4004088610846806900F400400090E5
:1053700000BF00BF00BF00BF00BF0846806940F00B
:10538000800088610846806900F08000009000BFBE
:1053900000BF00BF022001908003039001A8FEF728
:1053A000C7F9022007900320089007A90E48FDF7CF
:1053B000B7FE0E480E4908600020486000210C48E6
:1053C00081600173012101610021017581614FF448
:1053D0006021C161FDF73AF90548FDF701F80BB00E
:1053E00000BD00000010024000080140003C0140E8
:1053F0007007002000BFFEE77047000008B50849AD
:105400000968C9084FF47A72B1FBF2F14143009187
:1054100000BF00BF00994A1E00920029F9D108BDC3
:105420000000002070B504460025FEF731F805465F
:1054300007E0FEF72DF8401BB0F57A7F01D9032075
:1054400070BD2068406800F020000028F1D020687E
:10545000406840F01000216848600020F0E770B517
:10546000044600252068406820F01000216848604C
:10547000FEF70EF8054607E0FEF70AF8401BB0F508
:105480007A7F01D9032070BD2068406800F02000B9
:105490000028F1D00020F6E70EB51B4800684068F0
:1054A00000F0010038B1684606F03AFD6FF00100E7
:1054B000154909684860144800684068C0F3400016
:1054C000A0B16FF002001049096848600F48807869
:1054D0000E4949780D4A1278CDE9002102900B4817
:1054E000C379827981880AA0FAF7E8FF6FF0040097
:1054F00005490968486000BF034800684068C0F378
:1055000040100028F8D00EBD280600203C060020E0
:10551000416C61726D2054696D653A25642D256476
:105520002D25642025643A25643A25640A0000008C
:1055300010B5044601F0A4F910BD10B502460023D1
:105540000868506248689062D1E9020420430C69FF
:1055500020434C6920430343D06A20F0F7001843EE
:10556000D062002010BD01460869C0B270470146F4
:10557000086800F003007047024602F11400431867
:10558000186870470FB410B504460021DDE9030226
:105590001043059A1043069A1043079A1043089A3D
:1055A00010430143606847F6FF6290430843606020
:1055B000002010BC5DF814FB10B5044603202060E9
:1055C0000220FDF799FD002010BD0146D1F88000B2
:1055D000704710B50246002308689060D1E90104C5
:1055E0002043CC6820430C6920430343D0686FF309
:1055F0000B001843D060002010BD02460868C2F8B6
:1056000080000020704770B586B005460C460194B6
:105610003720029040200390002004904FF48060D7
:10562000059001A92846FFF7D4FF41F288323721BF
:10563000284600F0A5F90646304606B070BD0000C9
:1056400070B586B005460C460B48204301902920D2
:10565000029040200390002004904FF48060059059
:1056600001A92846FFF7B5FF284600F091FA064643
:10567000304606B070BD00000000108070B586B0E6
:1056800005460C4601941020029040200390002013
:1056900004904FF48060059001A92846FFF799FF18
:1056A00041F288321021284600F06AF90646304659
:1056B00006B070BD30B585B0044600200090019062
:1056C000029003904FF48060049069462046FFF7F3
:1056D00080FF204600F034F90546284605B030BD6D
:1056E00030B585B004464FF4D57000900820019085
:1056F00040200290002003904FF48060049069469F
:105700002046FFF766FF204600F0CAFA0546284605
:1057100005B030BD70B586B005460C460194122028
:10572000029040200390002004904FF48060059088
:1057300001A92846FFF74DFF41F288321221284681
:1057400000F01EF90646304606B070BD70B586B052
:1057500005460C4601941120029040200390002041
:1057600004904FF48060059001A92846FFF731FFAF
:1057700041F288321121284600F002F906463046EF
:1057800006B070BDF0B585B0064614461D460094BF
:105790000720019040200290002003904FF4806089
:1057A000049069463046FFF714FF41F28832072122
:1057B000304600F0E5F80746384605B0F0BD30B594
:1057C00085B004460020009002200190C020029085
:1057D000002003904FF48060049069462046FFF754
:1057E000F8FE204600F0A2F90546284605B030BD77
:1057F00070B586B005460C46019409200290C02081
:105800000390002004904FF48060059001A9284681
:10581000FFF7DFFE284600F089F90646304606B05D
:1058200070BD70B586B005460C4601940D200290FF
:1058300040200390002004904FF48060059001A95F
:105840002846FFF7C6FE41F288320D21284600F0B7
:1058500097F80646304606B070BD70B586B005466E
:105860000C4600200190032002904020039000206D
:1058700004904FF48060059001A92846FFF7A9FE27
:1058800022460321284600F0AFF90646304606B00E
:1058900070BD000030B585B00446002000900C209B
:1058A000019040200290002003904FF4806004900B
:1058B00069462046FFF78DFE044A0C21204600F081
:1058C0005FF80546284605B030BD000000E1F5054B
:1058D00070B586B005460C46019419200290402010
:1058E0000390002004904FF48060059001A92846A1
:1058F000FFF76FFE41F288321921284600F040F888
:105900000646304606B070BD70B586B005460C46FA
:1059100001941820029040200390002004904FF43E
:105920008060059001A92846FFF753FE41F28832B6
:105930001821284600F024F80646304606B070BD0F
:1059400001460E480068C0084FF47A73B0FBF3F0CC
:1059500041F2883300FB03F200BF101EA2F10102E6
:1059600002D14FF000407047486B00F080000028E3
:10597000F3D0C52088630020F5E700000000002078
:105980002DE9F04305460F46904666480068C0087A
:105990004FF47A71B0FBF1F000FB08F900BFB9F1E8
:1059A0000000A9F1010903D14FF00040BDE8F083E8
:1059B0006E6B06F045000028F1D006F40060002868
:1059C000EDD1686B00F0040010B10420A863EDE78E
:1059D000686B00F0010010B10120A863E6E7C52064
:1059E000A8632846FFF7BFFDB84201D00120DDE7DC
:1059F00000212846FFF7C0FD04464B48204008B967
:105A00000020D3E704F00040B0F1004F02D14FF086
:105A10000070CBE704F08040B0F1804F01D140200E
:105A2000C4E704F00050B0F1005F01D18020BDE771
:105A300004F08050B0F1805F02D14FF48070B5E780
:105A400004F00060B0F1006F02D14FF40070ADE7D8
:105A500004F08060B0F1806F02D14FF48060A5E760
:105A600004F08070B0F1807F02D14FF400609DE7B8
:105A700004F40000B0F5000F02D14FF4805095E718
:105A800004F48000B0F5800F02D14FF400508DE790
:105A900004F40010B0F5001F02D14FF4804085E7F8
:105AA00004F48010B0F5801F02D14FF400407DE770
:105AB00004F48020B0F5802F02D14FF4003075E758
:105AC00004F40030B0F5003F02D14FF480206DE7C0
:105AD00004F48030B0F5803F02D14FF4002065E738
